:1003180053696D6F6E277320412D4D415A452D69E4
:100328006E6720416476656E747572657321002A64
:100338002A2A2A2A2A2A2A2A2A2A2A2A2A2A2A2A15
:100348002A2A2A2A2A2A2A2A2A2A2A2A2A2A2A2A05
:1003580000506C656173652073656C656374206417
:100368006966666963756C7479206C6576656C3A44
:10037800200A00312920456173792020202020207F
:10038800202020203229204D656469756D202020A9
:100398002020202020202033292048617264200A50
:1003A800005757575757575757575757575757572C
:1003B80052524457575757575744575757575757F5
:1003C80044575757575757475757575757575757D8
:1003D80057575757575757575757445757445757CB
:1003E800575252444C4C57575757445757575757DB
:1003F80052525244575752555757475757575757BE
:100408005757575757575757575757575757575774
:10041800444C4C4C4C5757575757575744575557B8
:10042800575752525247575744575757445755579B
:10043800575757575252444C4C575557445757578C
:10044800555744575757554C4C575757575752526B
:1004580044575757554C5757575255575244575268
:100468005557575757575557575252555757575724
:100478005752524C575557554C575757575557572A
:1004880057554C5557575757575757575757575703
:030498005757575C
:10095000010802010A01010901010C01010B020158
:020960000D0A7E
:10000300E4F584F591F5A4F5B112090A12049B12E3
:05001300093D80F82208
:08078D008B398A3A893B8D3C4F
:10079500E4F53EE53EC3953C503CE4F53FE53FC3FB
:1007A500953D5024E53F75F007A4AB39253BF9E5A8
:1007B5003A35F0FA7E00E9253EF9EE3AFA120731AC
:1007C500FF120018053F80D57F0A1200187F0D1211
:0607D5000018053E80BD86
:0107DB0022FB
:0A0026008F3E8D3F8B408A418942D6
:10003000E4F543EF75F007A429F9EA35F0FAE53F56
:1000400024F8FFE434FFFEE92FF9EA3EFA12073103
:10005000FFB45704C2A4802BEFB44725E543C394F3
:10006000035020C2A47F107E277D007C001207DC95
:10007000D2A47F107E277D007C001207DC05438020
:10008000DBD2A4E53E75F007A4AB402542F9E5417B
:1000900035F0FAE53F24FFFFE434FFFEE92FF9EAEB
:1000A0003EFA120731FFB45704C285802BEFB447E4
:1000B00025E543C394035020C2857F107E277D0031
:1000C0007C001207DCD2857F107E277D007C001229
:1000D00007DC054380DBD285E53E75F007A4AB4025
:1000E0002542F9E54135F0FAE53F2406FFE433FE09
:1000F000E92FF9EA3EFA120731FFB45704C2A7808C
:100100002BEFB44725E543C394035020C2A77F10CB
:100110007E277D007C001207DCD2A77F107E277D22
:10012000007C001207DC054380DBD2A7E53E147596
:10013000F007A4AB402542F9E54135F0FA7E00E92D
:10014000253FF9EE3AFA120731FFB45704C2868010
:100150002BEFB44725E543C394035020C2867F109C
:100160007E277D007C001207DCD2867F107E277DF3
:10017000007C001207DC054380DBD286E53E75F08B
:1001800007A4AB402542F9E54135F0FA7E00E925A8
:100190003FF9EE3AFA120731FFB45704C296802BAA
:1001A000EFB44725E543C394035020C2967F107EE9
:1001B000277D007C001207DCD2967F107E277D0011
:1001C0007C001207DC054380DBD296E53E0475F027
:1001D00007A4AB402542F9E54135F0FA7E00E92558
:1001E0003FF9EE3AFA120731FFB45704C284802B6C
:1001F000EFB44725E543C394035020C2847F107EAB
:10020000277D007C001207DCD2847F107E277D00D2
:100210007C001207DC054380DBD284E53E75F007E5
:10022000A4AB402542F9E54135F0FAE53F24FAFF59
:10023000E434FFFEE92FF9EA3EFA120731FFB45722
:1002400004C2A5802BEFB44725E543C39403502097
:10025000C2A57F107E277D007C001207DCD2A57F1F
:10026000107E277D007C001207DC054380DBD2A5D1
:10027000E53E75F007A4AB402542F9E54135F0FABB
:10028000E53F2401FFE433FEE92FF9EA3EFA1207C5
:1002900031FFB45704C287802BEFB44725E543C331
:1002A00094035020C2877F107E277D007C001207B8
:1002B000DCD2877F107E277D007C001207DC05439F
:1002C00080DBD287E53E75F007A4AB402542F9E517
:1002D0004135F0FAE53F2408FFE433FEE92FF9EA5F
:1002E0003EFA120731FFB45703C2A622EFB44725E6
:1002F000E543C394035020C2A67F107E277D007C77
:10030000001207DCD2A67F107E277D007C0012073A
:07031000DC054380DBD2A6EF
:0103170022C3
:10081F008F398D3A8B3B8A3C893DEF75F007A429C0
:10082F00F9EA35F0FAE53A24FFFFE434FFFEE92F49
:10083F00F9EA3EFA12073164576002153AAB3BAA48
:0D084F003CA93DAD3AAF39120026AF3A2268
:10085C008F398D3A8B3B8A3C893DEF75F007A42983
:10086C00F9EA35F0FAE53A2401FFE433FEE92FF911
:10087C00EA3EFA12073164576002053AAB3BAA3CD8
:0C088C00A93DAD3AAF39120026AF3A2268
:100898008F398D3A8B3B8A3C893DE5390475F007E1
:1008A800A429F9EA35F0FA7E00E9253AF9EE3AFA90
:1008B800120731645760020539AB3BAA3CA93DAD2C
:0908C8003AAF39120026AF3922C3
:1008D1008F398D3A8B3B8A3C893DE5391475F00798
:1008E100A429F9EA35F0FA7E00E9253AF9EE3AFA57
:1008F100120731645760021539AB3BAA3CA93DADE3
:090901003AAF39120026AF392289
:0605A6008B2F8A30893121
:1005AC00E4F5348D35853336F537F538E5352430BB
:1005BC00FF1200187F0A1200187F0D120018E53682
:1005CC002430FF1200187F0A1200187F0D12001839
:1005DC00AB2FAA30A931AD36AF35120026E5346009
:1005EC00030206A230A0FD30A3FA3081F73083F469
:1005FC003082F13080EE7F0A7E007D007C00120795
:10060C00DC20A0057534018064309461208111AB2D
:10061C002FAA30A931AD36AF3512081F8F36804D59
:10062C00208311AB2FAA30A931AD36AF3512085C3F
:10063C008F368039208211AB2FAA30A931AD36AF5D
:10064C00351208D18F358025208011AB2FAA30A907
:10065C0031AD36AF351208988F35801120A30EAB13
:10066C002FAA30A931753D077D0712078DE5357529
:10067C00F007A4AB2F2531F9E53035F0FA7E00E90F
:10068C002536F9EE3AFA120731644760030205E9A0
:08069C007534010205E9AF34D9
:0106A4002233
:10049B00E4F5217522FF7523037524187525FF7567
:1004AB0026037527377528FF752903752A59752B70
:1004BB00FF752C03752D7BF52EAB25AA26A9278559
:1004CB002E8275830012074AFF6007120018052E53
:1004DB0080E77F0A1200187F0D120018E4F52EAB8F
:1004EB0022AA23A924852E8275830012074AFF6056
:1004FB0007120018052E80E77F0A1200187F0D12D5
:10050B000018E4F52EAB25AA26A927852E82758324
:10051B000012074AFF6007120018052E80E77F0ABA
:10052B001200187F0D1200187F0A1200187F0D128F
:10053B000018E4F52EAB28AA29A92A852E827583EB
:10054B000012074AFF6007120018052E80E77F0A8A
:10055B001200187F0D120018E4F52EAB2BAA2CA954
:10056B002D852E8275830012074AFF600712001833
:10057B00052E80E77F0A1200187F0D120018E4F594
:10058B002EE521701520A3F97BFF7A0379A975332A
:0A059B00017D021205A68F2180E702
:0105A5002233
:10093D00D2A4D285D2A7D286D296D284D2A5D2877E
:03094D00D2A6220D
:0807DC008F478E468D458C44C9
:1007E400E4F54BF54AF549F548AF47AE46AD45AC9F
:1007F40044AB4BAA4AA949A848C3120777501BE443
:10080400FAF9F8E54B2401F54BEA354AF54AE9359E
:0A08140049F549E83548F54880CF62
:01081E0022B7
:10090A005387BF75985053877FE4F5BA43A240F5E1
:10091A00BD75BEF075BF0275BD035391FE439102CA
:10092A004392015392FDC20043B81043B710D2ACB0
:03093A00D2AF2217
:030023000209636C
:0D096300309802C298309904C299C2003247
:080018002000FDD2008F9922A7
:03002000AF992273
:030000000206A550
:0C06A500787FE4F6D8FD75814B0206EC6E
:10073100BB010689828A83E0225002E722BBFE02C6
:09074100E32289828A83E49322F9
:10074A00BB010CE58229F582E5833AF583E0225064
:10075A0006E92582F8E622BBFE06E92582F8E222AE
:0D076A00E58229F582E5833AF583E49322C8
:10077700EB9FF5F0EA9E42F0E99D42F0EC6480C8F9
:0607870064809845F02299
:1006B100020003E493A3F8E493A34003F68001F25C
:1006C10008DFF48029E493A3F85407240CC8C3334A
:1006D100C4540F4420C8834004F456800146F6DF19
:1006E100E4800B0102040810204080900950E47E50
:1006F100019360BCA3FF543F30E509541FFEE4930E
:10070100A360010ECF54C025E060A840B8E493A3D4
:10071100FAE493A3F8E493A3C8C582C8CAC583CAFF
:10072100F0A3C8C582C8CAC583CADFE9DEE780BEB7
:010962000094
:00000001FF
