:1000260053696D6F6E277320412D4D415A452D69D9
:100036006E6720416476656E747572657321002A59
:100046002A2A2A2A2A2A2A2A2A2A2A2A2A2A2A2A0A
:100056002A2A2A2A2A2A2A2A2A2A2A2A2A2A2A2AFA
:1000660000506C656173652073656C65637420640C
:100076006966666963756C7479206C6576656C3A39
:10008600200A003129204561737920202020202074
:10009600202020203229204D656469756D2020209E
:1000A6002020202020202033292048617264200A45
:1000B6000057575757575757575757575757575721
:1000C60057575757575757575757444452575757E5
:1000D60057575757575757575257575757575757AF
:1000E600575757575257575757575757575757579F
:1000F600475757575757575757575757575757579A
:100106005757575757575757575757575757575779
:100116005757575757575757575757575757575769
:100126005757575757575757575757575757575759
:100136005757575757575757575757575757575749
:10014600575757575757575757575757575752573E
:10015600575257575757575757574444525555575D
:10016600575757575757575752575757575757571E
:100176005757574444445257575757575757444C65
:100186005757475757575757575757575757575709
:1001960057575757575757575757575757575757E9
:1001A60057575757575757575757575757575757D9
:1001B60057575757575757575757575757575757C9
:1001C60057575757575757575757575757575757B9
:1001D60057575757575757575757575757575255B0
:1001E6005555555757575757575752574C575757AF
:1001F6004444444757575257575752574C575757E7
:1002060057574444525555574C57525757574C57C2
:10021600525757574C5555575757575744445257A7
:1002260057574C55575757444C57445257444C57B9
:10023600575757574C575744444C57575757574497
:100246004C55574C574C55575757574C5757574C73
:10025600554C575757575757575757575757575735
:10026600570000247228E92DEB22670000338B44E7
:10027600CE3D4B369C91CBDA70A3A55BD8F5307A90
:1002860098899C1337B7AF6D380000000000000056
:100296000000000000000000005AC26F5E2396674F
:1002A600171EA6269D2B5830A64D3B000051D2485E
:1002B600E540F139DB9A76E76DAD6156B003C6814C
:1002C600E2CE2E34EDC29C73B700000000000000A1
:1002D6000000000000000000009C5FB4E5474B6191
:1002E6004E0B0B0B0B110E0B0E0B1F301F302D0080
:1002F6000000000000112D262D26261F300B300E83
:100306000E1F301F302D000000000000000000000E
:1003160000000000000000000000000000112D1F7A
:100326002D26261F301F2D27270000000000000065
:1003360000101010101010101010101010180820B7
:1003460000000000001010101010101010101010F7
:1003560010180820000000000010101010100808E7
:1003660010101008081010101020000000101010B7
:1003760010101010101010101018082000000000A7
:010386000076
:100EBF0001130201150101140101170101160A01A5
:020ECF00180207
:100E9200E4F584F591F5A4F5B1758911D2AF120E7E
:0A0EA20019120679120EAC80F82236
:080C50008B398A3A893B8D3C87
:100C5800E4F53EE53EC3953C503CE4F53FE53FC333
:100C6800953D5024E53F75F00CA4AB39253BF9E5DB
:100C78003A35F0FA7E00E9253EF9EE3AFA1209BA59
:100C8800FF120EDF053F80D57F0A120EDF7F0D129F
:060C98000EDF053E80BDE9
:010C9E002233
:0A0387008F3E8D3F8B408A41894272
:10039100E4F543EF75F00CA429F9EA35F0FAE53FED
:1003A10024F3FFE434FFFEE92FF9EA3EFA1209BA19
:1003B100FFB45704C2A4802BEFB44725E543C3948F
:1003C100035020C2A47F107E277D007C00120C9F69
:1003D100D2A47F107E277D007C00120C9F054380F4
:1003E100DBD2A4E53E75F00CA4AB402542F9E54112
:1003F10035F0FAE53F24FFFFE434FFFEE92FF9EA87
:100401003EFA1209BAFFB45704C285802BEFB447F4
:1004110025E543C394035020C2857F107E277D00CC
:100421007C00120C9FD2857F107E277D007C0012FC
:100431000C9F054380DBD285E53E75F00CA4AB40F3
:100441002542F9E54135F0FAE53F240BFFE433FE9F
:10045100E92FF9EA3EFA1209BAFFB45704C2A7809C
:100461002BEFB44725E543C394035020C2A77F1067
:100471007E277D007C00120C9FD2A77F107E277DF6
:10048100007C00120C9F054380DBD2A7E53E14756A
:10049100F00CA4AB402542F9E54135F0FA7E00E9C4
:1004A100253FF9EE3AFA1209BAFFB45704C2868021
:1004B1002BEFB44725E543C394035020C2867F1038
:1004C1007E277D007C00120C9FD2867F107E277DC7
:1004D100007C00120C9F054380DBD286E53E75F05F
:1004E1000CA4AB402542F9E54135F0FA7E00E9253F
:1004F1003FF9EE3AFA1209BAFFB45704C296802BBB
:10050100EFB44725E543C394035020C2967F107E84
:10051100277D007C00120C9FD2967F107E277D00E4
:100521007C00120C9F054380DBD296E53E0475F0FA
:100531000CA4AB402542F9E54135F0FA7E00E925EE
:100541003FF9EE3AFA1209BAFFB45704C284802B7C
:10055100EFB44725E543C394035020C2847F107E46
:10056100277D007C00120C9FD2847F107E277D00A6
:100571007C00120C9F054380DBD284E53E75F00CB4
:10058100A4AB402542F9E54135F0FAE53F24F5FFFA
:10059100E434FFFEE92FF9EA3EFA1209BAFFB45733
:1005A10004C2A5802BEFB44725E543C39403502033
:1005B100C2A57F107E277D007C00120C9FD2A57FF3
:1005C100107E277D007C00120C9F054380DBD2A5A5
:1005D100E53E75F00CA4AB402542F9E54135F0FA52
:1005E100E53F2401FFE433FEE92FF9EA3EFA12095F
:1005F100BAFFB45704C287802BEFB44725E543C344
:1006010094035020C2877F107E277D007C00120C4E
:100611009FD2877F107E277D007C00120C9F0543AF
:1006210080DBD287E53E75F00CA4AB402542F9E5AD
:100631004135F0FAE53F240DFFE433FEE92FF9EAF5
:100641003EFA1209BAFFB45703C2A622EFB44725F6
:10065100E543C394035020C2A67F107E277D007C12
:1006610000120C9FD2A67F107E277D007C00120C09
:070671009F054380DBD2A6C8
:01067800225F
:100CE2008F398D3A8B3B8A3C893DEF75F00CA429F4
:100CF200F9EA35F0FAE53A24FFFFE434FFFEE92F82
:100D0200F9EA3EFA1209BA64576004153A800312EE
:100D12000E71AB3BAA3CA93DAD3AAF39120387AF86
:020D22003A2273
:100D24008F398D3A8B3B8A3C893DEF75F00CA429B1
:100D3400F9EA35F0FAE53A2401FFE433FEE92FF944
:100D4400EA3EFA1209BA64576004053A8003120EA7
:100D540071AB3BAA3CA93DAD3AAF39120387AF3A18
:010D6400226C
:100D65008F398D3A8B3B8A3C893DE5390475F00C0A
:100D7500A429F9EA35F0FA7E00E9253AF9EE3AFABE
:100D85001209BA6457600405398003120E71AB3B32
:0E0D9500AA3CA93DAD3AAF39120387AF39220F
:100DA3008F398D3A8B3B8A3C893DE5391475F00CBC
:100DB300A429F9EA35F0FA7E00E9253AF9EE3AFA80
:100DC3001209BA6457600415398003120E71AB3BE4
:0E0DD300AA3CA93DAD3AAF39120387AF3922D1
:0608D6008B2F8A308931EE
:1008DC00E4F5348D35853336F537F538AD36AF352F
:1008EC00120387E53460030209B730A0FD30A3FA88
:1008FC003081F73083F43082F13080EE7F0A7E0055
:10090C007D007C00120C9F20A005753401807320A3
:10091C00940FAB2FAA30A931AD36AF351207AE808C
:10092C0061208111AB2FAA30A931AD36AF35120C35
:10093C00E28F36804D208311AB2FAA30A931AD3612
:10094C00AF35120D248F368039208211AB2FAA308F
:10095C00A931AD36AF35120DA38F3580252080110E
:10096C00AB2FAA30A931AD36AF35120D658F35805E
:10097C001120A30EAB2FAA30A931753D0C7D0C12A2
:10098C000C50E53575F00CA4AB2F2531F9E530355D
:10099C00F0FA7E00E92536F9EE3AFA1209BA644704
:0D09AC0060030208EF7534010208EFAF345C
:0109B900221B
:10067900E4F5217522FF7523007524267525FF757C
:1006890026007527457528FF752900752A67752B7A
:10069900FF752C00752D89F52EAB25AA26A927856E
:1006A9002E827583001209D3FF6007120EDF052E13
:1006B90080E77F0A120EDF7F0D120EDFE4F52EAB05
:1006C90022AA23A924852E827583001209D3FF60EB
:1006D90007120EDF052E80E77F0A120EDF7F0D124B
:1006E9000EDFE4F52EAB25AA26A927852E82758370
:1006F900001209D3FF6007120EDF052E80E77F0A7B
:10070900120EDF7F0D120EDF7F0A120EDF7F0D1230
:100719000EDFE4F52EAB28AA29A92A852E82758336
:10072900001209D3FF6007120EDF052E80E77F0A4A
:10073900120EDF7F0D120EDFE4F52EAB2BAA2CA9CA
:100749002D852E827583001209D3FF6007120EDFF3
:10075900052E80E77F0A120EDF7F0D120EDFE4F50A
:100769002EE521703F20A3127BFF7A0079B77533FC
:10077900017D021208D68F2180E720A1127BFF7A22
:100789000179477533017D011208D68F2180D22066
:10079900A2CF7BFF7A0179D77533027D0A1208D679
:0407A9008F2180BD5F
:0107AD002229
:100EAC00D2A4D285D2A7D286D296D284D2A5D2870A
:030EBC00D2A62299
:0A07AE008F398D3A8B3B8A3C893D60
:1007B800E4F53EEF75F00CA429F9EA35F0FA7E006D
:1007C800E9253AF9EE3AFA1209BAB45529E4F53EA0
:1007D800C2847F107E277D007C00120C9FD2847F0C
:1007E800107E277D007C00120C9F053EC3E53E6409
:1007F80080948340DB22E53975F00CA4AB3B253DA2
:10080800F9E53C35F0FA7E00E9253AF9EE3AFA12B4
:1008180009BAB44429E4F53EC2867F107E277D00DC
:100828007C00120C9FD2867F107E277D007C0012F0
:100838000C9F053EC3E53E6480948340DB22E53986
:1008480075F00CA4AB3B253DF9E53C35F0FA7E008C
:10085800E9253AF9EE3AFA1209BAB44C29E4F53E18
:10086800C2857F107E277D007C00120C9FD2857F79
:10087800107E277D007C00120C9F053EC3E53E6478
:1008880080948340DB22E53975F00CA4AB3B253D11
:10089800F9E53C35F0FA7E00E9253AF9EE3AFA1224
:1008A80009BAB45228E4F53EC2877F107E277D003E
:1008B8007C00120C9FD2877F107E277D007C00125F
:0D08C8000C9F053EC3E53E6480948340DB39
:0108D5002200
:03001B00020DE1F2
:100DE100C0E0C0F0C083C082C0D075D008AB10AAEB
:100DF10011A912120A00FDACF0C3E49DE49CFF337B
:100E010095E08F8DAF0DEFF404F58BB297D0D0D074
:080E110082D083D0F0D0E03262
:100E7100C2A9751000751100751209C28D12000307
:100E810075100075110075123DC28D120003D2A9B3
:010E9100223E
:10000300C297C28D758A33758CFBD28C308DFDC23D
:060013008CC28DD2972281
:100A9000E4F51BF51CF51DF51EAF1CAE1EEE75F042
:100AA00014A424E7F582E43402F583E5822FF5826D
:100AB000E43583F583E493F519EE75F014A4243737
:100AC000F582E43403F583E5822FF582E43583F57E
:100AD00083E493F51AAD1AAF19120BC6051CE51C79
:100AE0007002051BFFAE1EEE75F014A424E7F5821C
:100AF000E43402F583E5822FF582E43583F583E45F
:100B000093F519EE75F014A42437F582E43403F557
:100B100083E5822FF582E43583F583E493F51A703B
:100B2000B4F51BF51C051EE51E7002051DC39404DB
:090B3000E51D94005003020A992E
:010B39002299
:020BC6008F4C52
:100BC800ED700C754D02754EBCF54FF550801DAF9C
:100BD80005EF3395E0FEFDFCE47B687A01F9F81235
:100BE8000A2B8E4D8F4E754F00755014AF4CEF3356
:100BF80095E0FEEF25E0FFEE33FE74672FF97402EF
:100C08003EFA7BFF8B10F5118912120A0045F0603D
:100C18001EAB10120A00FDACF0C3E49DE49CFF3348
:100C280095E08F8DAF05EFF404F58BC28EC2ABAFA4
:100C38004EAE4D120E4CD2ABD28EE550454F6007EA
:070C4800AF50AE4F120E4C3D
:010C4F002282
:100E4C00EF1FAA0670011ED39400EA6480948040C0
:100E5C0013E4FCFDC3ED94FAEC940050E30DBD00DB
:040E6C00010C80F005
:010E7000225F
:080C9F008F478E468D458C4401
:100CA700E4F54BF54AF549F548AF47AE46AD45ACD7
:100CB70044AB4BAA4AA949A848C3120A7A501BE475
:100CC700FAF9F8E54B2401F54BEA354AF54AE935D7
:0A0CD70049F549E83548F54880CF9B
:010CE10022F0
:100E19005387BF75985053877FE4F5BA43A240F5CD
:100E2900BD75BEF075BF0275BD035391FE439102B6
:100E39004392015392FDC20043B81043B710D2AC9C
:030E4900D2AF2203
:03002300020ED2F8
:0D0ED200309802C298309904C299C20032D3
:080EDF002000FDD2008F9922D2
:03001E00AF992275
:03000000020B3AB6
:0C0B3A00787FE4F6D8FD758150020B8135
:1009BA00BB010689828A83E0225002E722BBFE023B
:0909CA00E32289828A83E493226E
:1009D300BB010CE58229F582E5833AF583E02250D9
:1009E30006E92582F8E622BBFE06E92582F8E22223
:0D09F300E58229F582E5833AF583E493223D
:100A0000BB010A89828A83E0F5F0A3E022500687C1
:100A1000F009E71922BBFE07E3F5F009E319228983
:0B0A2000828A83E493F5F074019322B6
:100A2B00E88FF0A4CC8BF0A42CFCE98EF0A42CFC6A
:100A3B008AF0EDA42CFCEA8EF0A4CDA8F08BF0A4E8
:100A4B002DCC3825F0FDE98FF0A42CCD35F0FCEB47
:100A5B008EF0A4FEA9F0EB8FF0A4CFC5F02ECD390C
:0F0A6B00FEE43CFCEAA42DCE35F0FDE43CFC2279
:100A7A00EB9FF5F0EA9E42F0E99D42F0EC6480C8F3
:060A8A0064809845F02293
:100B4600020E92E493A3F8E493A34003F68001F225
:100B560008DFF48029E493A3F85407240CC8C333B0
:100B6600C4540F4420C8834004F456800146F6DF7F
:100B7600E4800B0102040810204080900EBFE47E42
:100B8600019360BCA3FF543F30E509541FFEE49374
:100B9600A360010ECF54C025E060A840B8E493A33B
:100BA600FAE493A3F8E493A3C8C582C8CAC583CA66
:100BB600F0A3C8C582C8CAC583CADFE9DEE780BE1E
:010ED1000020
:00000001FF
