:1000260053696D6F6E277320412D4D415A452D69D9
:100036006E6720416476656E747572657321002A59
:100046002A2A2A2A2A2A2A2A2A2A2A2A2A2A2A2A0A
:100056002A2A2A2A2A2A2A2A2A2A2A2A2A2A2A2AFA
:1000660000506C656173652073656C65637420640C
:100076006966666963756C7479206C6576656C3A39
:10008600200A003129204561737920202020202074
:10009600202020203229204D656469756D2020209E
:1000A6002020202020202033292048617264200A45
:1000B6000057575757575757575757575757575721
:1000C60057575757575757575757444452575757E5
:1000D60057575757575757575257575757575757AF
:1000E600575757575257575757575757575757579F
:1000F600475757575757575757575757575757579A
:100106005757575757575757575757575757575779
:100116005757575757575757575757575757575769
:100126005757575757575757575757575757575759
:100136005757575757575757575757575757575749
:10014600575757575757575757575757575752573E
:10015600575257575757575757574444525555575D
:10016600575757575757575752575757575757571E
:100176005757574444445257575757575757444C65
:100186005757475757575757575757575757575709
:1001960057575757575757575757575757575757E9
:1001A60057575757575757575757575757575757D9
:1001B60057575757575757575757575757575757C9
:1001C60057575757575757575757575757575757B9
:1001D60057575757575757575757575757575255B0
:1001E6005555555757575757575752574C575757AF
:1001F6004444444757575257575752574C575757E7
:1002060057574444525555574C57525757574C57C2
:10021600525757574C5555575757575744445257A7
:1002260057574C55575757444C57445257444C57B9
:10023600575757574C575744444C57575757574497
:100246004455574C574C55575757574C5757574C7B
:10025600554C575757575757575757575757575735
:10026600570000247228E92DEB22670000338B44E7
:10027600CE3D4B369C91CBDA70A3A55BD8F5307A90
:1002860098899C1337B7AF6D380000000000000056
:100296000000000000000000005AC26F5E2396674F
:1002A600171EA6269D2B5830A64D3B000051D2485E
:1002B600E540F139DB9A76E76DAD6156B003C6814C
:1002C600E2CE2E34EDC29C73B700000000000000A1
:1002D6000000000000000000009C5FB4E5474B6191
:1002E6004E0B0B0B0B110E0B0E0B1F301F302D0080
:1002F6000000000000112D262D26261F300B300E83
:100306000E1F301F302D000000000000000000000E
:1003160000000000000000000000000000112D1F7A
:100326002D26261F301F2D27270000000000000065
:1003360000101010101010101010101010180820B7
:1003460000000000001010101010101010101010F7
:1003560010180820000000000010101010100808E7
:1003660010101008081010101020000000101010B7
:1003760010101010101010101018082000000000A7
:010386000076
:100C3300010B02010D01010C01010F01010E020163
:020C4300100A95
:100C0B00E4F584F591F5A4F5B1120B921206791265
:050C1B000C2080F8220E
:080A15008B398A3A893B8D3CC4
:100A1D00E4F53EE53EC3953C503CE4F53FE53FC370
:100A2D00953D5024E53F75F00CA4AB39253BF9E518
:100A3D003A35F0FA7E00E9253EF9EE3AFA1209B997
:100A4D00FF12001B053F80D57F0A12001B7F0D1280
:060A5D00001B053E80BDF8
:010A63002270
:0A0387008F3E8D3F8B408A41894272
:10039100E4F543EF75F00CA429F9EA35F0FAE53FED
:1003A10024F3FFE434FFFEE92FF9EA3EFA1209B91A
:1003B100FFB45704C2A4802BEFB44725E543C3948F
:1003C100035020C2A47F107E277D007C00120A64A6
:1003D100D2A47F107E277D007C00120A6405438031
:1003E100DBD2A4E53E75F00CA4AB402542F9E54112
:1003F10035F0FAE53F24FFFFE434FFFEE92FF9EA87
:100401003EFA1209B9FFB45704C285802BEFB447F5
:1004110025E543C394035020C2857F107E277D00CC
:100421007C00120A64D2857F107E277D007C001239
:100431000A64054380DBD285E53E75F00CA4AB4030
:100441002542F9E54135F0FAE53F240BFFE433FE9F
:10045100E92FF9EA3EFA1209B9FFB45704C2A7809D
:100461002BEFB44725E543C394035020C2A77F1067
:100471007E277D007C00120A64D2A77F107E277D33
:10048100007C00120A64054380DBD2A7E53E1475A7
:10049100F00CA4AB402542F9E54135F0FA7E00E9C4
:1004A100253FF9EE3AFA1209B9FFB45704C2868022
:1004B1002BEFB44725E543C394035020C2867F1038
:1004C1007E277D007C00120A64D2867F107E277D04
:1004D100007C00120A64054380DBD286E53E75F09C
:1004E1000CA4AB402542F9E54135F0FA7E00E9253F
:1004F1003FF9EE3AFA1209B9FFB45704C296802BBC
:10050100EFB44725E543C394035020C2967F107E84
:10051100277D007C00120A64D2967F107E277D0021
:100521007C00120A64054380DBD296E53E0475F037
:100531000CA4AB402542F9E54135F0FA7E00E925EE
:100541003FF9EE3AFA1209B9FFB45704C284802B7D
:10055100EFB44725E543C394035020C2847F107E46
:10056100277D007C00120A64D2847F107E277D00E3
:100571007C00120A64054380DBD284E53E75F00CF1
:10058100A4AB402542F9E54135F0FAE53F24F5FFFA
:10059100E434FFFEE92FF9EA3EFA1209B9FFB45734
:1005A10004C2A5802BEFB44725E543C39403502033
:1005B100C2A57F107E277D007C00120A64D2A57F30
:1005C100107E277D007C00120A64054380DBD2A5E2
:1005D100E53E75F00CA4AB402542F9E54135F0FA52
:1005E100E53F2401FFE433FEE92FF9EA3EFA12095F
:1005F100B9FFB45704C287802BEFB44725E543C345
:1006010094035020C2877F107E277D007C00120A50
:1006110064D2877F107E277D007C00120A64054327
:1006210080DBD287E53E75F00CA4AB402542F9E5AD
:100631004135F0FAE53F240DFFE433FEE92FF9EAF5
:100641003EFA1209B9FFB45703C2A622EFB44725F7
:10065100E543C394035020C2A67F107E277D007C12
:1006610000120A64D2A67F107E277D007C00120A48
:0706710064054380DBD2A603
:01067800225F
:100AA7008F398D3A8B3B8A3C893DEF75F00CA42931
:100AB700F9EA35F0FAE53A24FFFFE434FFFEE92FBF
:100AC700F9EA3EFA1209B964576002153AAB3BAA34
:0D0AD7003CA93DAD3AAF39120387AF3A227A
:100AE4008F398D3A8B3B8A3C893DEF75F00CA429F4
:100AF400F9EA35F0FAE53A2401FFE433FEE92FF987
:100B0400EA3EFA1209B964576002053AAB3BAA3CC3
:0C0B1400A93DAD3AAF39120387AF3A2279
:100B20008F398D3A8B3B8A3C893DE5390475F00C51
:100B3000A429F9EA35F0FA7E00E9253AF9EE3AFA05
:100B40001209B9645760020539AB3BAA3CA93DAD17
:090B50003AAF39120387AF3922D4
:100B59008F398D3A8B3B8A3C893DE5391475F00C08
:100B6900A429F9EA35F0FA7E00E9253AF9EE3AFACC
:100B79001209B9645760021539AB3BAA3CA93DADCE
:090B89003AAF39120387AF39229B
:060784008B2F8A30893141
:10078A00E4F5348D35853336F537F538E5352430DB
:10079A00FF12001B7F0A12001B7F0D12001BE53699
:1007AA002430FF12001B7F0A12001B7F0D12001B50
:1007BA00AB2FAA30A931AD36AF35120387E53460C5
:1007CA000302088030A0FD30A3FA3081F73083F4A9
:1007DA003082F13080EE7F0A7E007D007C00120AB2
:1007EA006420A0057534018064309461208111ABC6
:1007FA002FAA30A931AD36AF35120AA78F36804DF0
:10080A00208311AB2FAA30A931AD36AF35120AE4D5
:10081A008F368039208211AB2FAA30A931AD36AF7D
:10082A0035120B598F358025208011AB2FAA30A99C
:10083A0031AD36AF35120B208F35801120A30EABA8
:10084A002FAA30A931753D0C7D0C120A15E53575B4
:10085A00F00CA4AB2F2531F9E53035F0FA7E00E92A
:10086A002536F9EE3AFA1209B9644760030207C756
:08087A007534010207C7AF3419
:010882002253
:10067900E4F5217522FF7523007524267525FF757C
:1006890026007527457528FF752900752A67752B7A
:10069900FF752C00752D89F52EAB25AA26A927856E
:1006A9002E827583001209D2FF600712001B052EE6
:1006B90080E77F0A12001B7F0D12001BE4F52EABA9
:1006C90022AA23A924852E827583001209D2FF60EC
:1006D9000712001B052E80E77F0A12001B7F0D12EF
:1006E900001BE4F52EAB25AA26A927852E82758342
:1006F900001209D2FF600712001B052E80E77F0A4E
:1007090012001B7F0D12001B7F0A12001B7F0D12A6
:10071900001BE4F52EAB28AA29A92A852E82758308
:10072900001209D2FF600712001B052E80E77F0A1D
:1007390012001B7F0D12001BE4F52EAB2BAA2CA96E
:100749002D852E827583001209D2FF600712001BC6
:10075900052E80E77F0A12001B7F0D12001BE4F5AE
:100769002EE521701520A3F97BFF7A0079B775333F
:0A077900017D021207848F2180E742
:010783002253
:100C2000D2A4D285D2A7D286D296D284D2A5D28798
:030C3000D2A62227
:100BEA00D2A9750800750900750A09D28D12000389
:100BFA00750800750900750A3DD28D120003C2A955
:010C0A0022C7
:10000300C297C28DC28C758A33758CFBD28C208DBE
:08001300FDC28CC28DC29722D0
:10088300E4F513F514F515F516AF14AE16EE75F081
:1008930014A424E7F582E43402F583E5822FF5827C
:1008A300E43583F583E493F511EE75F014A424374E
:1008B300F582E43403F583E5822FF582E43583F58D
:1008C30083E493F512AD12AF11120C530514E51422
:1008D30070020513FFAE16EE75F014A424E7F5823B
:1008E300E43402F583E5822FF582E43583F583E46E
:1008F30093F511EE75F014A42437F582E43403F56F
:1009030083E5822FF582E43583F583E493F5127052
:10091300B4F513F5140516E51670020515C3941402
:09092300E5159400500302088C54
:01092C0022A8
:0B0C53008F178D187FBC7E02020BC5BE
:100BC500EF1FAA0670011ED39400EA64809480404A
:100BD50013E4FCFDC3ED94FAEC940050E30DBD0065
:040BE500010C80F08F
:010BE90022E9
:080A64008F478E468D458C443E
:100A6C00E4F54BF54AF549F548AF47AE46AD45AC14
:100A7C0044AB4BAA4AA949A848C31209FF501BE42E
:100A8C00FAF9F8E54B2401F54BEA354AF54AE93514
:0A0A9C0049F549E83548F54880CFD8
:010AA600222D
:100B92005387BF75985053877FE4F5BA43A240F557
:100BA200BD75BEF075BF0275BD035391FE43910240
:100BB2004392015392FDC20043B81043B710D2AC26
:030BC200D2AF228D
:03002300020C4686
:0D0C4600309802C298309904C299C2003261
:08001B002000FDD2008F9922A4
:030C5E00AF992229
:0300000002092DC5
:0C092D00787FE4F6D8FD75814B02097458
:1009B900BB010689828A83E0225002E722BBFE023C
:0909C900E32289828A83E493226F
:1009D200BB010CE58229F582E5833AF583E02250DA
:1009E20006E92582F8E622BBFE06E92582F8E22224
:0D09F200E58229F582E5833AF583E493223E
:1009FF00EB9FF5F0EA9E42F0E99D42F0EC6480C86F
:060A0F0064809845F0220E
:10093900020C0BE493A3F8E493A34003F68001F2BD
:1009490008DFF48029E493A3F85407240CC8C333BF
:10095900C4540F4420C8834004F456800146F6DF8E
:10096900E4800B0102040810204080900C33E47EDF
:10097900019360BCA3FF543F30E509541FFEE49383
:10098900A360010ECF54C025E060A840B8E493A34A
:10099900FAE493A3F8E493A3C8C582C8CAC583CA75
:1009A900F0A3C8C582C8CAC583CADFE9DEE780BE2D
:010C450000AE
:00000001FF
