:1000260053696D6F6E277320412D4D415A452D69D9
:100036006E6720416476656E747572657321002A59
:100046002A2A2A2A2A2A2A2A2A2A2A2A2A2A2A2A0A
:100056002A2A2A2A2A2A2A2A2A2A2A2A2A2A2A2AFA
:1000660000506C656173652073656C65637420640C
:100076006966666963756C7479206C6576656C3A39
:10008600200A003129204561737920202020202074
:10009600202020203229204D656469756D2020209E
:1000A6002020202020202033292048617264200A45
:1000B6000057575757575757575757575757575721
:1000C60057575757575757575757444452575757E5
:1000D60057575757575757575257575757575757AF
:1000E600575757575257575757575757575757579F
:1000F600475757575757575757575757575757579A
:100106005757575757575757575757575757575779
:100116005757575757575757575757575757575769
:100126005757575757575757575757575757575759
:100136005757575757575757575757575757575749
:10014600575757575757575757575757575752573E
:10015600575257575757575757574444525555575D
:10016600575757575757575752575757575757571E
:100176005757574444445257575757575757444C65
:100186005757475757575757575757575757575709
:1001960057575757575757575757575757575757E9
:1001A60057575757575757575757575757575757D9
:1001B60057575757575757575757575757575757C9
:1001C60057575757575757575757575757575757B9
:1001D60057575757575757575757575757575255B0
:1001E6005555555757575757575752574C575757AF
:1001F6004444444757575257575752574C575757E7
:1002060057574444525555574C57525757574C57C2
:10021600525757574C5555575757575744445257A7
:1002260057574C55575757444C57445257444C57B9
:10023600575757574C575744444C57575757574497
:100246004C55574C574C55575757574C5757574C73
:10025600554C575757575757575757575757575735
:10026600570000247228E92DEB22670000338B44E7
:10027600CE3D4B369C91CBDA70A3A55BD8F5307A90
:1002860098899C1337B7AF6D380000000000000056
:100296000000000000000000005AC26F5E2396674F
:1002A600171EA6269D2B5830A64D3B000051D2485E
:1002B600E540F139DB9A76E76DAD6156B003C6814C
:1002C600E2CE2E34EDC29C73B700000000000000A1
:1002D6000000000000000000009C5FB4E5474B6191
:1002E6004E0B0B0B0B110E0B0E0B1F301F302D0080
:1002F6000000000000112D262D26261F300B300E83
:100306000E1F301F302D000000000000000000000E
:1003160000000000000000000000000000112D1F7A
:100326002D26261F301F2D27270000000000000065
:1003360000101010101010101010101010180820B7
:1003460000000000001010101010101010101010F7
:1003560010180820000000000010101010100808E7
:1003660010101008081010101020000000101010B7
:1003760010101010101010101018082000000000A7
:010386000076
:100EB500010B02010D01010C01010F01010E0A01D7
:020EC500100219
:100E8A00E4F584F591F5A4F5B1758911120E3612BF
:080E9A0007B2120EA280F8223B
:080CBD008B398A3A893B8D3C1A
:100CC500E4F53EE53EC3953C503CE4F53FE53FC3C6
:100CD500953D5024E53F75F00CA4AB39253BF9E56E
:100CE5003A35F0FA7E00E9253EF9EE3AFA1209CED8
:100CF500FF120EE7053F80D57F0A120EE77F0D1222
:060D05000EE7053E80BD73
:010D0B0022C5
:0A0387008F3F8D408B418A4289436D
:10039100E4F544EF75F00CA429F9EA35F0FAE540EB
:1003A10024F3FFE434FFFEE92FF9EA3EFA1209CE05
:1003B100FFB45704C2A4802BEFB44725E544C3948E
:1003C100035020C2A47F107E277D007C00120DF314
:1003D100D2A47F107E277D007C00120DF30544809E
:1003E100DBD2A4E53F75F00CA4AB412543F9E5420E
:1003F10035F0FAE54024FFFFE434FFFEE92FF9EA86
:100401003EFA1209CEFFB45704C285802BEFB447E0
:1004110025E544C394035020C2857F107E277D00CB
:100421007C00120DF3D2857F107E277D007C0012A7
:100431000DF3054480DBD285E53F75F00CA4AB419B
:100441002543F9E54235F0FAE540240BFFE433FE9C
:10045100E92FF9EA3EFA1209CEFFB45704C2A78088
:100461002BEFB44725E544C394035020C2A77F1066
:100471007E277D007C00120DF3D2A77F107E277DA1
:10048100007C00120DF3054480DBD2A7E53F147513
:10049100F00CA4AB412543F9E54235F0FA7E00E9C1
:1004A1002540F9EE3AFA1209CEFFB45704C286800C
:1004B1002BEFB44725E544C394035020C2867F1037
:1004C1007E277D007C00120DF3D2867F107E277D72
:1004D100007C00120DF3054480DBD286E53F75F008
:1004E1000CA4AB412543F9E54235F0FA7E00E9253C
:1004F10040F9EE3AFA1209CEFFB45704C296802BA6
:10050100EFB44725E544C394035020C2967F107E83
:10051100277D007C00120DF3D2967F107E277D008F
:100521007C00120DF3054480DBD296E53F0475F0A3
:100531000CA4AB412543F9E54235F0FA7E00E925EB
:1005410040F9EE3AFA1209CEFFB45704C284802B67
:10055100EFB44725E544C394035020C2847F107E45
:10056100277D007C00120DF3D2847F107E277D0051
:100571007C00120DF3054480DBD284E53F75F00C5D
:10058100A4AB412543F9E54235F0FAE54024F5FFF6
:10059100E434FFFEE92FF9EA3EFA1209CEFFB4571F
:1005A10004C2A5802BEFB44725E544C39403502032
:1005B100C2A57F107E277D007C00120DF3D2A57F9E
:1005C100107E277D007C00120DF3054480DBD2A54F
:1005D100E53F75F00CA4AB412543F9E54235F0FA4E
:1005E100E5402401FFE433FEE92FF9EA3EFA12095E
:1005F100CEFFB45704C287802BEFB44725E544C32F
:1006010094035020C2877F107E277D007C00120D4D
:10061100F3D2877F107E277D007C00120DF3054405
:1006210080DBD287E53F75F00CA4AB412543F9E5AA
:100631004235F0FAE540240DFFE433FEE92FF9EAF3
:100641003EFA1209CEFFB45703C2A622EFB44725E2
:10065100E544C394035020C2A67F107E277D007C11
:1006610000120DF3D2A67F107E277D007C00120DB3
:07067100F3054480DBD2A673
:01067800225F
:100C6D008F398D3A8B3B8A3C893DEF75F00CA42969
:100C7D00F9EA35F0FAE53A24FFFFE434FFFEE92FF7
:100C8D00F9EA3EFA1209CE64576004153A80111242
:100C9D0000037F107E277D007C00120DF3120003F0
:100CAD00AB3BAA3CA93DAD3AAF39120387AF3A220F
:100D0C008F398D3A8B3B8A3C893DEF75F00CA429C9
:100D1C00F9EA35F0FAE53A2401FFE433FEE92FF95C
:100D2C00EA3EFA1209CE64576004053A80111200AB
:100D3C00037F107E277D007C00120DF3120003ABA5
:0F0D4C003BAA3CA93DAD3AAF39120387AF3A221B
:100D5B008F398D3A8B3B8A3C893DE5390475F00C14
:100D6B00A429F9EA35F0FA7E00E9253AF9EE3AFAC8
:100D7B001209CE64576004053980111200037F10ED
:100D8B007E277D007C00120DF3120003AB3BAA3CC7
:0C0D9B00A93DAD3AAF39120387AF3922F1
:100DA7008F398D3A8B3B8A3C893DE5391475F00CB8
:100DB700A429F9EA35F0FA7E00E9253AF9EE3AFA7C
:100DC7001209CE64576004153980111200037F1091
:100DD7007E277D007C00120DF3120003AB3BAA3C7B
:0C0DE700A93DAD3AAF39120387AF3922A5
:0608E7008B2F8A308931DD
:1008ED00E4F5348D35853336F537F538AD36AF351E
:1008FD00120387E53460030209CB30A0FD30A3FA63
:10090D003081F73083F43082F13080EE7F0A7E0043
:10091D007D007C00120DF320A0057534018073203D
:10092D00940FAB2FAA30A931AD36AF3512067980B1
:10093D0061208111AB2FAA30A931AD36AF35120C24
:10094D006D8F36804D208311AB2FAA30A931AD3676
:10095D00AF35120D0C8F368039208211AB2FAA3096
:10096D00A931AD36AF35120DA78F358025208011F9
:10097D00AB2FAA30A931AD36AF35120D5B8F358057
:10098D001120A30EAB2FAA30A931753D0C7D0C1291
:10099D000CBDE53575F00CA4AB2F2531F9E53035DF
:1009AD00F0FA7E00E92536F9EE3AFA1209CE6447DF
:1009BD006003020900753401120AA4020900AF3464
:0109CD002207
:1007B200E4F5217522FF7523007524267525FF7542
:1007C20026007527457528FF752900752A67752B40
:1007D200FF752C00752D89F52EAB25AA26A9278534
:1007E2002E827583001209E7FF6007120EE7052EBD
:1007F20080E77F0A120EE77F0D120EE7E4F52EABBB
:1008020022AA23A924852E827583001209E7FF609C
:1008120007120EE7052E80E77F0A120EE77F0D1200
:100822000EE7E4F52EAB25AA26A927852E8275832D
:10083200001209E7FF6007120EE7052E80E77F0A24
:10084200120EE77F0D120EE77F0A120EE77F0D12DE
:100852000EE7E4F52EAB28AA29A92A852E827583F4
:10086200001209E7FF6007120EE7052E80E77F0AF4
:10087200120EE77F0D120EE7E4F52EAB2BAA2CA980
:100882002D852E827583001209E7FF6007120EE79D
:10089200052E80E77F0A120EE77F0D120EE7E4F5C0
:1008A2002EE521703F20A3127BFF7A0079B77533C2
:1008B200017D021208E78F2180E720A1127BFF7AD7
:1008C2000179477533017D011208E78F2180D2201B
:1008D200A2CF7BFF7A0179D77533027D0A1208E72E
:0408E2008F2180BD25
:0108E60022EF
:100EA200D2A4D285D2A7D286D296D284D2A5D28714
:030EB200D2A622A3
:0A0679008F398D3A8B3B8A3C893D96
:10068300E4F53EEF75F00CA429F9EA35F0FA7E00A3
:10069300E9253AF9EE3AFA1209CEB4552BE4F53EC0
:1006A300C2857F107E277D007C00120DF3D2857FEB
:1006B300107E277D007C00120DF3053EC3E53E64EA
:1006C30080948340DB0207A5E53975F00CA4AB3BAE
:1006D300253DF9E53C35F0FA7E00E9253AF9EE3A95
:1006E300FA1209CEB4442BE4F53EC2877F107E276D
:1006F3007D007C00120DF3D2877F107E277D007C66
:1007030000120DF3053EC3E53E6480948340DB0293
:1007130007A5E53975F00CA4AB3B253DF9E53C3560
:10072300F0FA7E00E9253AF9EE3AFA1209CEB44C12
:100733002AE4F53EC2867F107E277D007C00120DE1
:10074300F3D2867F107E277D007C00120DF3053ED9
:10075300C3E53E6480948340DB8047E53975F00C44
:10076300A4AB3B253DF9E53C35F0FA7E00E9253A9B
:10077300F9EE3AFA1209CEB45228E4F53EC2847F68
:10078300107E277D007C00120DF3D2847F107E271C
:100793007D007C00120DF3053EC3E53E6480948327
:0F07A30040DBAB3BAA3CA93DAD3AAF390203871F
:10000300E4F53EC297120EC8B297120EC8053EC35E
:08001300E53E6480949440EB8B
:01001B0022C2
:100EC800C28D758A33758CFBD28C308DFDC28CC275
:020ED8008D2269
:100AA400E4F53BF53CF53DF53EAF3CAE3EEE75F06E
:100AB40014A424E7F582E43402F583E5822FF58259
:100AC400E43583F583E493F539EE75F014A4243703
:100AD400F582E43403F583E5822FF582E43583F56A
:100AE40083E493F53AAD3AAF39120B4E053CE53C3D
:100AF4007002053BFFAE3EEE75F014A424E7F582C8
:100B0400E43402F583E5822FF582E43583F583E44A
:100B140093F539EE75F014A42437F582E43403F523
:100B240083E5822FF582E43583F583E493F53A7007
:100B3400B4F53BF53C053EE53E7002053DC3940427
:090B4400E53D94005003020AADE6
:010B4D002285
:020B4E008F3FD7
:100B5000E4F540F541F542F543ED700C7540027542
:100B600041BCF542F543801DAF05EF3395E0FEFD36
:100B7000FCE47B687A01F9F8120A3F8E408F4175D8
:100B80004200754314AF3FEF3395E0FEEF25E0FFE1
:100B9000EE33FE74672FF974023EFA7BFF8B08F583
:100BA00009890A120A1445F0601EAB08120A14FDE6
:100BB000ACF0C3E49DE49CFF3395E08F8DAF05EF6F
:100BC000F404F58BC28EC2ABAF41AE40120E69D2B7
:100BD000ABD28EE54345426007AF43AE42120E6989
:010BE00022F2
:100E6900D3EF9400EE648094804015E4FDFC0DBD41
:100E790000010CED64FA4C70F5EF1F70E31E80E081
:010E89002246
:080DF3008F488E478D468C45A8
:100DFB00E4F54CF54BF54AF549AF48AE47AD46AC7B
:100E0B0045AB4CAA4BA94AA849C3120A8E501BE406
:100E1B00FAF9F8E54C2401F54CEA354BF54BE9357D
:0A0E2B004AF54AE83549F54980CF41
:010E3500229A
:100E36005387BF75985053877FE4F5BA43A240F5B0
:100E4600BD75BEF075BF0275BD035391FE43910299
:100E56004392015392FDC20043B81043B710D2AC7F
:030E6600D2AF22E6
:03002300020EDAF0
:0D0EDA00309802C298309904C299C20032CB
:080EE7002000FDD2008F9922CA
:03000000020BE10F
:0C0BE100787FE4F6D8FD75814C020C28EA
:1009CE00BB010689828A83E0225002E722BBFE0227
:0909DE00E32289828A83E493225A
:1009E700BB010CE58229F582E5833AF583E02250C5
:1009F70006E92582F8E622BBFE06E92582F8E2220F
:0D0A0700E58229F582E5833AF583E4932228
:100A1400BB010A89828A83E0F5F0A3E022500687AD
:100A2400F009E71922BBFE07E3F5F009E31922896F
:0B0A3400828A83E493F5F074019322A2
:100A3F00E88FF0A4CC8BF0A42CFCE98EF0A42CFC56
:100A4F008AF0EDA42CFCEA8EF0A4CDA8F08BF0A4D4
:100A5F002DCC3825F0FDE98FF0A42CCD35F0FCEB33
:100A6F008EF0A4FEA9F0EB8FF0A4CFC5F02ECD39F8
:0F0A7F00FEE43CFCEAA42DCE35F0FDE43CFC2265
:100A8E00EB9FF5F0EA9E42F0E99D42F0EC6480C8DF
:060A9E0064809845F0227F
:100BED00020E8AE493A3F8E493A34003F68001F286
:100BFD0008DFF48029E493A3F85407240CC8C33309
:100C0D00C4540F4420C8834004F456800146F6DFD7
:100C1D00E4800B0102040810204080900EB5E47EA4
:100C2D00019360BCA3FF543F30E509541FFEE493CC
:100C3D00A360010ECF54C025E060A840B8E493A393
:100C4D00FAE493A3F8E493A3C8C582C8CAC583CABE
:100C5D00F0A3C8C582C8CAC583CADFE9DEE780BE76
:010EC700002A
:00000001FF
