:1000260053696D6F6E277320412D4D415A452D69D9
:100036006E6720416476656E747572657321002A59
:100046002A2A2A2A2A2A2A2A2A2A2A2A2A2A2A2A0A
:100056002A2A2A2A2A2A2A2A2A2A2A2A2A2A2A2AFA
:1000660000506C656173652073656C65637420640C
:100076006966666963756C7479206C6576656C3A39
:10008600200A003129204561737920202020202074
:10009600202020203229204D656469756D2020209E
:1000A6002020202020202033292048617264200A45
:1000B6000057575757575757575757575757575721
:1000C60057575757575757575757444452575757E5
:1000D60057575757575757575257575757575757AF
:1000E600575757575257575757575757575757579F
:1000F600475757575757575757575757575757579A
:100106005757575757575757575757575757575779
:100116005757575757575757575757575757575769
:100126005757575757575757575757575757575759
:100136005757575757575757575757575757575749
:10014600575757575757575757575757575752573E
:10015600575257575757575757574444525555575D
:10016600575757575757575752575757575757571E
:100176005757574444445257575757575757444C65
:100186005757475757575757575757575757575709
:1001960057575757575757575757575757575757E9
:1001A60057575757575757575757575757575757D9
:1001B60057575757575757575757575757575757C9
:1001C60057575757575757575757575757575757B9
:1001D60057575757575757575757575757575255B0
:1001E6005555555757575757575752574C575757AF
:1001F6004444444757575257575752574C575757E7
:1002060057574444525555574C57525757574C57C2
:10021600525757574C5555575757575744445257A7
:1002260057574C55575757444C57445257444C57B9
:10023600575757574C575744444C57575757574497
:100246004455574C574C55575757574C5757574C7B
:10025600554C575757575757575757575757575735
:10026600570000247228E92DEB22670000338B44E7
:10027600CE3D4B369C91CBDA70A3A55BD8F5307A90
:1002860098899C1337B7AF6D380000000000000056
:100296000000000000000000005AC26F5E2396674F
:1002A600171EA6269D2B5830A64D3B000051D2485E
:1002B600E540F139DB9A76E76DAD6156B003C6814C
:1002C600E2CE2E34EDC29C73B700000000000000A1
:1002D6000000000000000000009C5FB4E5474B6191
:1002E6004E0B0B0B0B110E0B0E0B1F301F302D0080
:1002F6000000000000112D262D26261F300B300E83
:100306000E1F301F302D000000000000000000000E
:1003160000000000000000000000000000112D1F7A
:100326002D26261F301F2D27270000000000000065
:1003360000101010101010101010101010180820B7
:1003460000000000001010101010101010101010F7
:1003560010180820000000000010101010100808E7
:1003660010101008081010101020000000101010B7
:1003760010101010101010101018082000000000A7
:010386000076
:100D870001130201150101140101170101160201E6
:020D9700180A38
:10000300E4F584F591F5A4F5B1758911120CE512A7
:080013000679120D7480F82239
:080B1C008B398A3A893B8D3CBC
:100B2400E4F53EE53EC3953C503CE4F53FE53FC368
:100B3400953D5024E53F75F00CA4AB39253BF9E510
:100B44003A35F0FA7E00E9253EF9EE3AFA120886C3
:100B5400FF120DA7053F80D57F0A120DA77F0D1246
:060B64000DA7053E80BD57
:010B6A002268
:0A0387008F3E8D3F8B408A41894272
:10039100E4F543EF75F00CA429F9EA35F0FAE53FED
:1003A10024F3FFE434FFFEE92FF9EA3EFA1208864E
:1003B100FFB45704C2A4802BEFB44725E543C3948F
:1003C100035020C2A47F107E277D007C00120B6B9E
:1003D100D2A47F107E277D007C00120B6B05438029
:1003E100DBD2A4E53E75F00CA4AB402542F9E54112
:1003F10035F0FAE53F24FFFFE434FFFEE92FF9EA87
:100401003EFA120886FFB45704C285802BEFB44729
:1004110025E543C394035020C2857F107E277D00CC
:100421007C00120B6BD2857F107E277D007C001231
:100431000B6B054380DBD285E53E75F00CA4AB4028
:100441002542F9E54135F0FAE53F240BFFE433FE9F
:10045100E92FF9EA3EFA120886FFB45704C2A780D1
:100461002BEFB44725E543C394035020C2A77F1067
:100471007E277D007C00120B6BD2A77F107E277D2B
:10048100007C00120B6B054380DBD2A7E53E14759F
:10049100F00CA4AB402542F9E54135F0FA7E00E9C4
:1004A100253FF9EE3AFA120886FFB45704C2868056
:1004B1002BEFB44725E543C394035020C2867F1038
:1004C1007E277D007C00120B6BD2867F107E277DFC
:1004D100007C00120B6B054380DBD286E53E75F094
:1004E1000CA4AB402542F9E54135F0FA7E00E9253F
:1004F1003FF9EE3AFA120886FFB45704C296802BF0
:10050100EFB44725E543C394035020C2967F107E84
:10051100277D007C00120B6BD2967F107E277D0019
:100521007C00120B6B054380DBD296E53E0475F02F
:100531000CA4AB402542F9E54135F0FA7E00E925EE
:100541003FF9EE3AFA120886FFB45704C284802BB1
:10055100EFB44725E543C394035020C2847F107E46
:10056100277D007C00120B6BD2847F107E277D00DB
:100571007C00120B6B054380DBD284E53E75F00CE9
:10058100A4AB402542F9E54135F0FAE53F24F5FFFA
:10059100E434FFFEE92FF9EA3EFA120886FFB45768
:1005A10004C2A5802BEFB44725E543C39403502033
:1005B100C2A57F107E277D007C00120B6BD2A57F28
:1005C100107E277D007C00120B6B054380DBD2A5DA
:1005D100E53E75F00CA4AB402542F9E54135F0FA52
:1005E100E53F2401FFE433FEE92FF9EA3EFA120860
:1005F10086FFB45704C287802BEFB44725E543C378
:1006010094035020C2877F107E277D007C00120B4F
:100611006BD2877F107E277D007C00120B6B054318
:1006210080DBD287E53E75F00CA4AB402542F9E5AD
:100631004135F0FAE53F240DFFE433FEE92FF9EAF5
:100641003EFA120886FFB45703C2A622EFB447252B
:10065100E543C394035020C2A67F107E277D007C12
:1006610000120B6BD2A67F107E277D007C00120B3F
:070671006B054380DBD2A6FC
:01067800225F
:100BAE008F398D3A8B3B8A3C893DEF75F00CA42929
:100BBE00F9EA35F0FAE53A24FFFFE434FFFEE92FB7
:100BCE00F9EA3EFA12088664576004153A80031259
:100BDE000D3DAB3BAA3CA93DAD3AAF39120387AFF1
:020BEE003A22A9
:100BF0008F398D3A8B3B8A3C893DEF75F00CA429E7
:100C0000F9EA35F0FAE53A2401FFE433FEE92FF979
:100C1000EA3EFA12088664576004053A8003120D12
:100C20003DAB3BAA3CA93DAD3AAF39120387AF3A81
:010C300022A1
:100C31008F398D3A8B3B8A3C893DE5390475F00C3F
:100C4100A429F9EA35F0FA7E00E9253AF9EE3AFAF3
:100C51001208866457600405398003120D3DAB3BD1
:0E0C6100AA3CA93DAD3AAF39120387AF392244
:100C6F008F398D3A8B3B8A3C893DE5391475F00CF1
:100C7F00A429F9EA35F0FA7E00E9253AF9EE3AFAB5
:100C8F001208866457600415398003120D3DAB3B83
:0E0C9F00AA3CA93DAD3AAF39120387AF392206
:060784008B2F8A30893141
:10078A00E4F5348D35853336F537F538E5352430DB
:10079A00FF120DA77F0A120DA77F0D120DA7E536CE
:1007AA002430FF120DA77F0A120DA77F0D120DA785
:1007BA00AB2FAA30A931AD36AF35120387E53460C5
:1007CA000302088330A0FD30A3FA3081F73083F4A6
:1007DA003082F13080EE7F0A7E007D007C00120BB1
:1007EA006B20A0057534018064309461208111ABBF
:1007FA002FAA30A931AD36AF35120BAE8F36804DE8
:10080A00208311AB2FAA30A931AD36AF35120BF0C8
:10081A008F368039208211AB2FAA30A931AD36AF7D
:10082A0035120C6F8F358025208011AB2FAA30A985
:10083A0031AD36AF35120C318F35801120A30EAB96
:10084A002FAA30A931753D0C7D0C120B1CE53575AC
:10085A00F00CA4AB2F2531F9E53035F0FA7E00E92A
:10086A002536F9EE3AFA120886644760030207C78A
:0B087A0075340112095C0207C7AF349F
:010885002250
:10067900E4F5217522FF7523007524267525FF757C
:1006890026007527457528FF752900752A67752B7A
:10069900FF752C00752D89F52EAB25AA26A927856E
:1006A9002E8275830012089FFF6007120DA7052E81
:1006B90080E77F0A120DA77F0D120DA7E4F52EAB77
:1006C90022AA23A924852E8275830012089FFF6020
:1006D90007120DA7052E80E77F0A120DA77F0D12BD
:1006E9000DA7E4F52EAB25AA26A927852E827583A9
:1006F9000012089FFF6007120DA7052E80E77F0AE9
:10070900120DA77F0D120DA77F0A120DA77F0D12DB
:100719000DA7E4F52EAB28AA29A92A852E8275836F
:100729000012089FFF6007120DA7052E80E77F0AB8
:10073900120DA77F0D120DA7E4F52EAB2BAA2CA93C
:100749002D852E8275830012089FFF6007120DA761
:10075900052E80E77F0A120DA77F0D120DA7E4F57C
:100769002EE521701520A3F97BFF7A0079B775333F
:0A077900017D021207848F2180E742
:010783002253
:100D7400D2A4D285D2A7D286D296D284D2A5D28743
:030D8400D2A622D2
:03001B00020CAD27
:100CAD00C0E0C0F0C083C082C0D075D008AB10AA20
:100CBD0011A9121208CCFDACF0C3E49DE49CFF33E6
:100CCD0095E08F8DAF0DEFF404F58BB297D0D0D0AA
:080CDD0082D083D0F0D0E03298
:100D3D00C2A9751000751100751209C28D120D5ED4
:100D4D0075100075110075123DC28D120D5ED2A980
:010D5D002273
:100D5E00C297C28D758A33758CFBD28C308DFDC2D5
:060D6E008CC28DD2972219
:10095C00E4F53BF53CF53DF53EAF3CAE3EEE75F0B7
:10096C0014A424E7F582E43402F583E5822FF582A2
:10097C00E43583F583E493F539EE75F014A424374C
:10098C00F582E43403F583E5822FF582E43583F5B3
:10099C0083E493F53AAD3AAF39120A92053CE53C43
:1009AC007002053BFFAE3EEE75F014A424E7F58211
:1009BC00E43402F583E5822FF582E43583F583E494
:1009CC0093F539EE75F014A42437F582E43403F56D
:1009DC0083E5822FF582E43583F583E493F53A7051
:1009EC00B4F53BF53C053EE53E7002053DC3940471
:0909FC00E53D9400500302096579
:010A050022CE
:020A92008F3F94
:100A9400ED700C7540027541BCF542F543801DAF05
:100AA40005EF3395E0FEFDFCE47B687A01F9F8126A
:100AB40008F78E408F41754200754314AF3FEF3302
:100AC40095E0FEEF25E0FFEE33FE74672FF9740224
:100AD4003EFA7BFF8B10F51189121208CC45F060A9
:100AE4001EAB101208CCFDACF0C3E49DE49CFF33B4
:100AF40095E08F8DAF05EFF404F58BC28EC2ABAFDA
:100B040041AE40120D18D2ABD28EE5434542600788
:070B1400AF43AE42120D18C1
:010B1B0022B7
:100D1800EF1FAA0670011ED39400EA6480948040F5
:100D280013E4FCFDC3ED94FAEC940050E30DBD0010
:040D3800010C80F03A
:010D3C002294
:080B6B008F478E468D458C4436
:100B7300E4F54BF54AF549F548AF47AE46AD45AC0C
:100B830044AB4BAA4AA949A848C3120946501BE4DF
:100B9300FAF9F8E54B2401F54BEA354AF54AE9350C
:0A0BA30049F549E83548F54880CFD0
:010BAD002225
:100CE5005387BF75985053877FE4F5BA43A240F503
:100CF500BD75BEF075BF0275BD035391FE439102EC
:100D05004392015392FDC20043B81043B710D2ACD1
:030D1500D2AF2238
:03002300020D9A31
:0D0D9A00309802C298309904C299C200320C
:080DA7002000FDD2008F99220B
:03001E00AF992275
:03000000020A06EB
:0C0A0600787FE4F6D8FD75814B020A4DA4
:10088600BB010689828A83E0225002E722BBFE0270
:09089600E32289828A83E49322A3
:10089F00BB010CE58229F582E5833AF583E022500E
:1008AF0006E92582F8E622BBFE06E92582F8E22258
:0D08BF00E58229F582E5833AF583E4932272
:1008CC00BB010A89828A83E0F5F0A3E022500687F7
:1008DC00F009E71922BBFE07E3F5F009E3192289B9
:0B08EC00828A83E493F5F074019322EC
:1008F700E88FF0A4CC8BF0A42CFCE98EF0A42CFCA0
:100907008AF0EDA42CFCEA8EF0A4CDA8F08BF0A41D
:100917002DCC3825F0FDE98FF0A42CCD35F0FCEB7C
:100927008EF0A4FEA9F0EB8FF0A4CFC5F02ECD3941
:0F093700FEE43CFCEAA42DCE35F0FDE43CFC22AE
:10094600EB9FF5F0EA9E42F0E99D42F0EC6480C828
:0609560064809845F022C8
:100A1200020003E493A3F8E493A34003F68001F2F7
:100A220008DFF48029E493A3F85407240CC8C333E5
:100A3200C4540F4420C8834004F456800146F6DFB4
:100A4200E4800B0102040810204080900D87E47EB0
:100A5200019360BCA3FF543F30E509541FFEE493A9
:100A6200A360010ECF54C025E060A840B8E493A370
:100A7200FAE493A3F8E493A3C8C582C8CAC583CA9B
:100A8200F0A3C8C582C8CAC583CADFE9DEE780BE53
:010D99000059
:00000001FF
