:1000260053696D6F6E277320412D4D415A452D69D9
:100036006E6720416476656E747572657321002A59
:100046002A2A2A2A2A2A2A2A2A2A2A2A2A2A2A2A0A
:100056002A2A2A2A2A2A2A2A2A2A2A2A2A2A2A2AFA
:1000660000506C656173652073656C65637420640C
:100076006966666963756C7479206C6576656C3A39
:10008600200A003129204561737920202020202074
:10009600202020203229204D656469756D2020209E
:1000A6002020202020202033292048617264200A45
:1000B6000057575757575757575757575757575721
:1000C60057575757575757575757444452575757E5
:1000D60057575757575757575257575757575757AF
:1000E600575757575257575757575757575757579F
:1000F600475757575757575757575757575757579A
:100106005757575757575757575757575757575779
:100116005757575757575757575757575757575769
:100126005757575757575757575757575757575759
:100136005757575757575757575757575757575749
:10014600575757575757575757575757575752573E
:10015600575257575757575757574444525555575D
:10016600575757575757575752575757575757571E
:100176005757574444445257575757575757444C65
:100186005757475757575757575757575757575709
:1001960057575757575757575757575757575757E9
:1001A60057575757575757575757575757575757D9
:1001B60057575757575757575757575757575757C9
:1001C60057575757575757575757575757575757B9
:1001D60057575757575757575757575757575255B0
:1001E6005555555757575757575752574C575757AF
:1001F6004444444757575257575752574C575757E7
:1002060057574444525555574C57525757574C57C2
:10021600525757574C5555575757575744445257A7
:1002260057574C55575757444C57445257444C57B9
:10023600575757574C575744444C57575757574497
:100246004455574C574C55575757574C5757574C7B
:10025600554C575757575757575757575757575735
:10026600570000247228E92DEB22670000338B44E7
:10027600CE3D4B369C91CBDA70A3A55BD8F5307A90
:1002860098899C1337B7AF6D380000000000000056
:100296000000000000000000005AC26F5E2396674F
:1002A600171EA6269D2B5830A64D3B000051D2485E
:1002B600E540F139DB9A76E76DAD6156B003C6814C
:1002C600E2CE2E34EDC29C73B700000000000000A1
:1002D6000000000000000000009C5FB4E5474B6191
:1002E6004E0B0B0B0B110E0B0E0B1F301F302D0080
:1002F6000000000000112D262D26261F300B300E83
:100306000E1F301F302D000000000000000000000E
:1003160000000000000000000000000000112D1F7A
:100326002D26261F301F2D27270000000000000065
:1003360000101010101010101010101010180820B7
:1003460000000000001010101010101010101010F7
:1003560010180820000000000010101010100808E7
:1003660010101008081010101020000000101010B7
:1003760010101010101010101018082000000000A7
:010386000076
:100C4A00010B02010D01010C01010F01010E02014C
:020C5A00100A7E
:100C2200E4F584F591F5A4F5B1120BA91206791237
:050C32000C3780F822E0
:080A18008B398A3A893B8D3CC1
:100A2000E4F53EE53EC3953C503CE4F53FE53FC36D
:100A3000953D5024E53F75F00CA4AB39253BF9E515
:100A40003A35F0FA7E00E9253EF9EE3AFA1209BC91
:100A5000FF12001B053F80D57F0A12001B7F0D127D
:060A6000001B053E80BDF5
:010A6600226D
:0A0387008F3E8D3F8B408A41894272
:10039100E4F543EF75F00CA429F9EA35F0FAE53FED
:1003A10024F3FFE434FFFEE92FF9EA3EFA1209BC17
:1003B100FFB45704C2A4802BEFB44725E543C3948F
:1003C100035020C2A47F107E277D007C00120A67A3
:1003D100D2A47F107E277D007C00120A670543802E
:1003E100DBD2A4E53E75F00CA4AB402542F9E54112
:1003F10035F0FAE53F24FFFFE434FFFEE92FF9EA87
:100401003EFA1209BCFFB45704C285802BEFB447F2
:1004110025E543C394035020C2857F107E277D00CC
:100421007C00120A67D2857F107E277D007C001236
:100431000A67054380DBD285E53E75F00CA4AB402D
:100441002542F9E54135F0FAE53F240BFFE433FE9F
:10045100E92FF9EA3EFA1209BCFFB45704C2A7809A
:100461002BEFB44725E543C394035020C2A77F1067
:100471007E277D007C00120A67D2A77F107E277D30
:10048100007C00120A67054380DBD2A7E53E1475A4
:10049100F00CA4AB402542F9E54135F0FA7E00E9C4
:1004A100253FF9EE3AFA1209BCFFB45704C286801F
:1004B1002BEFB44725E543C394035020C2867F1038
:1004C1007E277D007C00120A67D2867F107E277D01
:1004D100007C00120A67054380DBD286E53E75F099
:1004E1000CA4AB402542F9E54135F0FA7E00E9253F
:1004F1003FF9EE3AFA1209BCFFB45704C296802BB9
:10050100EFB44725E543C394035020C2967F107E84
:10051100277D007C00120A67D2967F107E277D001E
:100521007C00120A67054380DBD296E53E0475F034
:100531000CA4AB402542F9E54135F0FA7E00E925EE
:100541003FF9EE3AFA1209BCFFB45704C284802B7A
:10055100EFB44725E543C394035020C2847F107E46
:10056100277D007C00120A67D2847F107E277D00E0
:100571007C00120A67054380DBD284E53E75F00CEE
:10058100A4AB402542F9E54135F0FAE53F24F5FFFA
:10059100E434FFFEE92FF9EA3EFA1209BCFFB45731
:1005A10004C2A5802BEFB44725E543C39403502033
:1005B100C2A57F107E277D007C00120A67D2A57F2D
:1005C100107E277D007C00120A67054380DBD2A5DF
:1005D100E53E75F00CA4AB402542F9E54135F0FA52
:1005E100E53F2401FFE433FEE92FF9EA3EFA12095F
:1005F100BCFFB45704C287802BEFB44725E543C342
:1006010094035020C2877F107E277D007C00120A50
:1006110067D2877F107E277D007C00120A67054321
:1006210080DBD287E53E75F00CA4AB402542F9E5AD
:100631004135F0FAE53F240DFFE433FEE92FF9EAF5
:100641003EFA1209BCFFB45703C2A622EFB44725F4
:10065100E543C394035020C2A67F107E277D007C12
:1006610000120A67D2A67F107E277D007C00120A45
:0706710067054380DBD2A600
:01067800225F
:100AAA008F398D3A8B3B8A3C893DEF75F00CA4292E
:100ABA00F9EA35F0FAE53A24FFFFE434FFFEE92FBC
:100ACA00F9EA3EFA1209BC64576004153A80031227
:100ADA000C01AB3BAA3CA93DAD3AAF39120387AF33
:020AEA003A22AE
:100AEC008F398D3A8B3B8A3C893DEF75F00CA429EC
:100AFC00F9EA35F0FAE53A2401FFE433FEE92FF97F
:100B0C00EA3EFA1209BC64576004053A8003120CE1
:100B1C0001AB3BAA3CA93DAD3AAF39120387AF3AC2
:010B2C0022A6
:100B2D008F398D3A8B3B8A3C893DE5390475F00C44
:100B3D00A429F9EA35F0FA7E00E9253AF9EE3AFAF8
:100B4D001209BC6457600405398003120C01AB3BDC
:0E0B5D00AA3CA93DAD3AAF39120387AF392249
:100B6B008F398D3A8B3B8A3C893DE5391475F00CF6
:100B7B00A429F9EA35F0FA7E00E9253AF9EE3AFABA
:100B8B001209BC6457600415398003120C01AB3B8E
:0E0B9B00AA3CA93DAD3AAF39120387AF39220B
:060784008B2F8A30893141
:10078A00E4F5348D35853336F537F538E5352430DB
:10079A00FF12001B7F0A12001B7F0D12001BE53699
:1007AA002430FF12001B7F0A12001B7F0D12001B50
:1007BA00AB2FAA30A931AD36AF35120387E53460C5
:1007CA000302088330A0FD30A3FA3081F73083F4A6
:1007DA003082F13080EE7F0A7E007D007C00120AB2
:1007EA006720A0057534018064309461208111ABC3
:1007FA002FAA30A931AD36AF35120AAA8F36804DED
:10080A00208311AB2FAA30A931AD36AF35120AECCD
:10081A008F368039208211AB2FAA30A931AD36AF7D
:10082A0035120B6B8F358025208011AB2FAA30A98A
:10083A0031AD36AF35120B2D8F35801120A30EAB9B
:10084A002FAA30A931753D0C7D0C120A18E53575B1
:10085A00F00CA4AB2F2531F9E53035F0FA7E00E92A
:10086A002536F9EE3AFA1209BC644760030207C753
:0B087A007534011208860207C7AF3476
:010885002250
:10067900E4F5217522FF7523007524267525FF757C
:1006890026007527457528FF752900752A67752B7A
:10069900FF752C00752D89F52EAB25AA26A927856E
:1006A9002E827583001209D5FF600712001B052EE3
:1006B90080E77F0A12001B7F0D12001BE4F52EABA9
:1006C90022AA23A924852E827583001209D5FF60E9
:1006D9000712001B052E80E77F0A12001B7F0D12EF
:1006E900001BE4F52EAB25AA26A927852E82758342
:1006F900001209D5FF600712001B052E80E77F0A4B
:1007090012001B7F0D12001B7F0A12001B7F0D12A6
:10071900001BE4F52EAB28AA29A92A852E82758308
:10072900001209D5FF600712001B052E80E77F0A1A
:1007390012001B7F0D12001BE4F52EAB2BAA2CA96E
:100749002D852E827583001209D5FF600712001BC3
:10075900052E80E77F0A12001B7F0D12001BE4F5AE
:100769002EE521701520A3F97BFF7A0079B775333F
:0A077900017D021207848F2180E742
:010783002253
:100C3700D2A4D285D2A7D286D296D284D2A5D28781
:030C4700D2A62210
:100C0100D2A9750800750900750A09D28D12000371
:100C1100750800750900750A3DD28D120003C2A93D
:010C210022B0
:10000300D297D28DD28C758A33758CFBD28C308D7E
:08001300FDC28CC28DC29722D0
:10088600E4F53BF53CF53DF53EAF3CAE3EEE75F08E
:1008960014A424E7F582E43402F583E5822FF58279
:1008A600E43583F583E493F539EE75F014A4243723
:1008B600F582E43403F583E5822FF582E43583F58A
:1008C60083E493F53AAD3AAF39120C6A053CE53C40
:1008D6007002053BFFAE3EEE75F014A424E7F582E8
:1008E600E43402F583E5822FF582E43583F583E46B
:1008F60093F539EE75F014A42437F582E43403F544
:1009060083E5822FF582E43583F583E493F53A7027
:10091600B4F53BF53C053EE53E7002053DC3941437
:09092600E53D9400500302088F26
:01092F0022A5
:0B0C6A008F3F8D407FBC7E02020BDC40
:100BDC00EF1FAA0670011ED39400EA648094804033
:100BEC0013E4FCFDC3ED94FAEC940050E30DBD004E
:040BFC00010C80F078
:010C000022D1
:080A67008F478E468D458C443B
:100A6F00E4F54BF54AF549F548AF47AE46AD45AC11
:100A7F0044AB4BAA4AA949A848C3120A02501BE427
:100A8F00FAF9F8E54B2401F54BEA354AF54AE93511
:0A0A9F0049F549E83548F54880CFD5
:010AA900222A
:100BA9005387BF75985053877FE4F5BA43A240F540
:100BB900BD75BEF075BF0275BD035391FE43910229
:100BC9004392015392FDC20043B81043B710D2AC0F
:030BD900D2AF2276
:03002300020C5D6F
:0D0C5D00309802C298309904C299C200324A
:08001B002000FDD2008F9922A4
:030C7500AF992212
:03000000020930C2
:0C093000787FE4F6D8FD75814B02097752
:1009BC00BB010689828A83E0225002E722BBFE0239
:0909CC00E32289828A83E493226C
:1009D500BB010CE58229F582E5833AF583E02250D7
:1009E50006E92582F8E622BBFE06E92582F8E22221
:0D09F500E58229F582E5833AF583E493223B
:100A0200EB9FF5F0EA9E42F0E99D42F0EC6480C86B
:060A120064809845F0220B
:10093C00020C22E493A3F8E493A34003F68001F2A3
:10094C0008DFF48029E493A3F85407240CC8C333BC
:10095C00C4540F4420C8834004F456800146F6DF8B
:10096C00E4800B0102040810204080900C4AE47EC5
:10097C00019360BCA3FF543F30E509541FFEE49380
:10098C00A360010ECF54C025E060A840B8E493A347
:10099C00FAE493A3F8E493A3C8C582C8CAC583CA72
:1009AC00F0A3C8C582C8CAC583CADFE9DEE780BE2A
:010C5C000097
:00000001FF
