:1003180053696D6F6E277320412D4D415A452D69E4
:100328006E6720416476656E747572657321002A64
:100338002A2A2A2A2A2A2A2A2A2A2A2A2A2A2A2A15
:100348002A2A2A2A2A2A2A2A2A2A2A2A2A2A2A2A05
:1003580000506C656173652073656C656374206417
:100368006966666963756C7479206C6576656C3A44
:10037800200A00312920456173792020202020207F
:10038800202020203229204D656469756D202020A9
:100398002020202020202033292048617264200A50
:1003A800005757575757575757575757575757572C
:1003B80052524457575757575744575757575757F5
:1003C80044575757575757475757575757575757D8
:1003D80057575757575757575757445757445757CB
:1003E800575252444C4C57575757445757575757DB
:1003F80052525244575752555757475757575757BE
:100408005757575757575757575757575757575774
:10041800444C4C4C4C5757575757575744575557B8
:10042800575752525247575744575757445755579B
:10043800575757575252444C4C575557445757578C
:10044800555744575757554C4C575757575752526B
:1004580044575757554C5757575255575244575268
:100468005557575757575557575252555757575724
:100478005752524C575557554C575757575557572A
:1004880057554C5557575757575757575757575703
:030498005757575C
:10000300010801010A02010901010C01010B0201AE
:020013000D0AD4
:10095700E4F584F591F5A4F5B11209241205BC80DC
:02096700FB2271
:0807A7008B388A39893A8D3B39
:1007AF00E4F53DE53DC3953B503CE4F53EE53EC3E6
:1007BF00953C5024E53D75F007A4AB38253AF9E593
:1007CF003935F0FA7E00E9253EF9EE3AFA12074B79
:1007DF00FF120969053E80D57F0A1209697F0D1244
:0607EF000969053D80BD13
:0107F50022E1
:0A0026008F3D8D3E8B3F8A408941DB
:10003000E4F542EF75F007A429F9EA35F0FAE53E58
:1000400024F8FFE434FFFEE92FF9EA3EFA12074BE9
:10005000FFB45704C2A4802BEFB44725E542C394F4
:10006000035020C2A47F647E007D007C001207F64E
:10007000D2A47F647E007D007C001207F6054280DA
:10008000DBD2A4E53D75F007A4AB3F2541F9E5407F
:1000900035F0FAE53E24FFFFE434FFFEE92FF9EAEC
:1000A0003EFA12074BFFB45704C285802BEFB447CA
:1000B00025E542C394035020C2857F647E007D0005
:1000C0007C001207F6D2857F647E007D007C0012E2
:1000D00007F6054280DBD285E53D75F007A4AB3F0E
:1000E0002541F9E54035F0FAE53E2406FFE433FE0C
:1000F000E92FF9EA3EFA12074BFFB45704C2A78072
:100100002BEFB44725E542C394035020C2A77F6478
:100110007E007D007C001207F6D2A77F647E007D02
:10012000007C001207F6054280DBD2A7E53D14757E
:10013000F007A4AB3F2541F9E54035F0FA7E00E930
:10014000253EF9EE3AFA12074BFFB45704C28680F7
:100150002BEFB44725E542C394035020C2867F6449
:100160007E007D007C001207F6D2867F647E007DD3
:10017000007C001207F6054280DBD286E53D75F073
:1001800007A4AB3F2541F9E54035F0FA7E00E925AB
:100190003EF9EE3AFA12074BFFB45704C296802B91
:1001A000EFB44725E542C394035020C2967F647E96
:1001B000007D007C001207F6D2967F647E007D00F1
:1001C0007C001207F6054280DBD296E53D0475F00F
:1001D00007A4AB3F2541F9E54035F0FA7E00E9255B
:1001E0003EF9EE3AFA12074BFFB45704C284802B53
:1001F000EFB44725E542C394035020C2847F647E58
:10020000007D007C001207F6D2847F647E007D00B2
:100210007C001207F6054280DBD284E53D75F007CD
:10022000A4AB3F2541F9E54035F0FAE53E24FAFF5D
:10023000E434FFFEE92FF9EA3EFA12074BFFB45708
:1002400004C2A5802BEFB44725E542C39403502098
:10025000C2A57F647E007D007C001207F6D2A57FD8
:10026000647E007D007C001207F6054280DBD2A58B
:10027000E53D75F007A4AB3F2541F9E54035F0FABF
:10028000E53E2401FFE433FEE92FF9EA3EFA1207C6
:100290004BFFB45704C287802BEFB44725E542C318
:1002A00094035020C2877F647E007D007C0012078B
:1002B000F6D2877F647E007D007C001207F605423F
:1002C00080DBD287E53D75F007A4AB3F2541F9E51A
:1002D0004035F0FAE53E2408FFE433FEE92FF9EA61
:1002E0003EFA12074BFFB45703C2A622EFB44725CC
:1002F000E542C394035020C2A67F647E007D007C4B
:10030000001207F6D2A67F647E007D007C001207F3
:07031000F6054280DBD2A6D6
:0103170022C3
:100839008F388D398B3A8A3B893CEF75F007A429AB
:10084900F9EA35F0FAE53924FFFFE434FFFEE92F30
:10085900F9EA3EFA12074B645760021539AB3AAA16
:0D0869003BA93CAD39AF38120026AF392253
:100876008F388D398B3A8A3B893CEF75F007A4296E
:10088600F9EA35F0FAE5392401FFE433FEE92FF9F8
:10089600EA3EFA12074B645760020539AB3AAA3BA7
:0C08A600A93CAD39AF38120026AF392252
:1008B2008F388D398B3A8A3B893CE5380475F007CD
:1008C200A429F9EA35F0FA7E00E92539F9EE3AFA77
:1008D20012074B645760020538AB3AAA3BA93CADFC
:0908E20039AF38120026AF3822AC
:1008EB008F388D398B3A8A3B893CE5381475F00784
:1008FB00A429F9EA35F0FA7E00E92539F9EE3AFA3E
:10090B0012074B645760021538AB3AAA3BA93CADB2
:09091B0039AF38120026AF382272
:06049B008B2E8A2F893030
:1004A100E4F5338D34853235F536F537E5342430CE
:1004B100FF1209697F0A1209697F0D120969E53581
:1004C1002430FF1209697F0A1209697F0D12096937
:1004D100AB2EAA2FA930AD35AF34120026E533601B
:1004E100030205BB30A0FD30A3FA3081F73083F45D
:1004F1003082F13080EE7F0A7E007D007C001207A1
:10050100F6E5342430FF1209697F0A1209697F0D6B
:10051100120969E5352430FF1209697F0A12096958
:100521007F0D12096920A005E4F5338064309461E0
:10053100208111AB2EAA2FA930AD35AF3412083965
:100541008F35804D208311AB2EAA2FA930AD35AF49
:10055100341208768F358039208211AB2EAA2FA94B
:1005610030AD35AF341208EB8F348025208011ABCC
:100571002EAA2FA930AD35AF341208B28F348011B5
:1005810020A30EAB2EAA2FA930753C077D071207B9
:10059100A7E53475F007A4AB2E2530F9E52F35F02A
:1005A100FA7E00E92535F9EE3AFA12074B64476005
:0A05B100030204DE7533010204DECC
:0105BB00221D
:1005BC007521FF7522037523187524FF75250375A6
:1005CC0026377527FF752803752959752AFF752B52
:1005DC0003752C7BE4F52DAB24AA25A926852D8249
:1005EC00758300120764FF6007120969052D80E707
:1005FC007F0A1209697F0D120969E4F52DAB21AA56
:10060C0022A923852D82758300120764FF600712CF
:10061C000969052D80E77F0A1209697F0D120969A6
:10062C00E4F52DAB24AA25A926852D82758300120D
:10063C000764FF6007120969052D80E77F0A12091C
:10064C00697F0D1209697F0A1209697F0D12096908
:10065C00E4F52DAB27AA28A929852D8275830012D4
:10066C000764FF6007120969052D80E77F0A1209EC
:10067C00697F0D120969E4F52DAB2AAA2BA92C85EB
:10068C002D82758300120764FF6007120969052D1E
:10069C0080E77F0A1209697F0D120969E4F52D20A4
:1006AC00A3FD7BFF7A0379A97532027D0112049BAD
:0206BC0080EDCF
:0106BE002219
:0807F6008F468E458D448C43B3
:1007FE00E4F54AF549F548F547AF46AE45AD44AC8C
:10080E0043AB4AAA49A948A847C3120791501BE413
:10081E00FAF9F8E54A2401F54AEA3549F549E93588
:0A082E0048F548E83547F54780CF4C
:01083800229D
:100924005387BF75985053877FE4F5BA43A240F5C7
:10093400BD75BEF075BF0275BD035391FE439102B0
:100944004392015392FDC20043B81043B710D2AC96
:03095400D2AF22FD
:03002300020016C2
:0D001600309802C298309904C299C200329D
:080969002000FDD2008F99224D
:03097100AF992219
:030000000206BF36
:0C06BF00787FE4F6D8FD75814A0207063A
:10074B00BB010689828A83E0225002E722BBFE02AC
:09075B00E32289828A83E49322DF
:10076400BB010CE58229F582E5833AF583E022504A
:1007740006E92582F8E622BBFE06E92582F8E22294
:0D078400E58229F582E5833AF583E49322AE
:10079100EB9FF5F0EA9E42F0E99D42F0EC6480C8DF
:0607A10064809845F0227F
:1006CB00020957E493A3F8E493A34003F68001F2E5
:1006DB0008DFF48029E493A3F85407240CC8C33330
:1006EB00C4540F4420C8834004F456800146F6DFFF
:1006FB00E4800B0102040810204080900003E47E8C
:10070B00019360BCA3FF543F30E509541FFEE493F3
:10071B00A360010ECF54C025E060A840B8E493A3BA
:10072B00FAE493A3F8E493A3C8C582C8CAC583CAE5
:10073B00F0A3C8C582C8CAC583CADFE9DEE780BE9D
:0100150000EA
:00000001FF
